:020000040800F2
:1000000000000320550C0008C90B0008CF0B0008A6
:10001000D50B0008DB0B0008E10B00080000000016
:10002000000000000000000000000000E70B0008D6
:10003000F50B000800000000030C0008110C00087C
:10004000A50C0008A50C0008A50C0008A50C0008CC
:10005000A50C0008A50C0008A50C0008A50C0008BC
:10006000A50C0008A50C0008A50C0008A50C0008AC
:10007000A50C0008A50C0008A50C0008A50C00089C
:10008000A50C0008A50C0008A50C0008A50C00088C
:10009000A50C0008A50C0008A50C0008A50C00087C
:1000A000A50C0008A50C0008A50C0008A50C00086C
:1000B000A50C0008A50C0008A50C0008A50C00085C
:1000C000A50C0008A50C0008A50C0008A50C00084C
:1000D000A50C0008A50C00081D0C0008A50C0008C4
:1000E000A50C0008A50C0008A50C0008A50C00082C
:1000F000A50C0008A50C0008A50C0008A50C00081C
:10010000A50C0008A50C0008A50C0008A50C00080B
:10011000A50C0008A50C0008A50C0008A50C0008FB
:10012000A50C0008A50C0008A50C0008A50C0008EB
:10013000A50C0008A50C0008A50C0008A50C0008DB
:10014000A50C0008A50C0008A50C0008A50C0008CB
:10015000A50C0008A50C0008A50C0008A50C0008BB
:10016000A50C0008A50C0008A50C0008A50C0008AB
:10017000A50C0008A50C0008A50C00080000000054
:10018000A50C0008A50C0008A50C0008A50C00088B
:10019000A50C0008A50C0008A50C0008A50C00087B
:0C01A000A50C0008A50C0008A50C000828
:1001AC0010B5054C237833B9044B13B10448AFF3A5
:1001BC0000800123237010BD0C0000200000000003
:1001CC007033000808B5034B1BB103490348AFF368
:1001DC00008008BD000000001000002070330008F3
:1001EC0053B94AB9002908BF00281CBF4FF0FF3192
:1001FC004FF0FF3000F06EB9ADF1080C6DE904CE94
:10020C0000F006F8DDF804E0DDE9022304B07047E5
:10021C002DE9F047089D04468C46002B40F0838066
:10022C008A42174647D9B2FA82F242B1C2F1200093
:10023C0024FA00F09140974040EA010C94404FEAB8
:10024C001748230CBCFBF8F61FFA87FE08FB16C1F7
:10025C0043EA014306FB0EF1994209D9FB1806F15A
:10026C00FF3080F01981994240F21681023E3B44E6
:10027C005B1AA4B2B3FBF8F008FB103344EA034456
:10028C0000FB0EFEA64509D93C1900F1FF3380F0A6
:10029C000581A64540F2028102383C4440EA064002
:1002AC00A4EB0E0400261DB1D4400023C5E9004385
:1002BC003146BDE8F08702B9FFDEB2FA82F2002ABD
:1002CC0050D1CB1B4FEA174E1FFA87F80126B3FB10
:1002DC00FEFC210C0EFB1C3341EA034108FB0CF322
:1002EC008B4207D979180CF1FF3002D28B4200F205
:1002FC00E9808446C91AA3B2B1FBFEF00EFB1011C3
:10030C0043EA014408FB00F8A04507D93C1900F169
:10031C00FF3302D2A04500F2D9801846A4EB0804A2
:10032C0040EA0C40BFE78B4209D9002D00F0B180A8
:10033C000026C5E9000130463146BDE8F087B3FA26
:10034C0083F6002E4AD18B4202D3824200F2B8804F
:10035C00841A61EB030101208C46002DA8D0C5E95D
:10036C00004CA5E7C2F1200320FA03F6974001FAEE
:10037C0002F04FEA174ED9403043030CB1FBFEF6A6
:10038C001FFA87F80EFB161143EA014306FB08F12E
:10039C00994204FA02F409D9FB1806F1FF3C80F0EB
:1003AC008D80994240F28A80023E3B445B1A81B2B6
:1003BC00B3FBFEF00EFB103341EA034100FB08F3E4
:1003CC008B4207D9791800F1FF3C73D28B4271D95B
:1003DC0002383944CB1A40EA064678E7C6F1200CBD
:1003EC0003FA06F422FA0CF31C4320FA0CF701FA78
:1003FC0006F34FEA144E21FA0CF11F433B0CB1FBF0
:10040C00FEF91FFA84F80EFB191143EA014109FBAE
:10041C0008FA8A4502FA06F200FA06F308D96118BE
:10042C0009F1FF3048D28A4546D9A9F10209214485
:10043C00A1EB0A01BFB2B1FBFEF00EFB101147EAB3
:10044C00014700FB08F8B84507D9E71900F1FF315F
:10045C002ED2B8452CD90238274440EA0940A7EBE4
:10046C000807A0FB02894F45C64649461AD317D048
:10047C005DB1B3EB0E0267EB010707FA0CFCF2401F
:10048C004CEA0202F740C5E9002700263146BDE8D8
:10049C00F0872E4628460BE70646E9E61846FDE6A9
:1004AC004345E5D2B8EB020E69EB04010138DFE7F6
:1004BC000846D2E760468DE78146B9E7664675E7A0
:1004CC0030464AE7ACF1020C394413E702383C449D
:1004DC0024E700BF704700BF80B582B000AF002397
:1004EC007B6000F0DBFB00F05FF800F049F900F0F6
:1004FC00EFF800F017F900F0C1F8264B1B6841F239
:10050C001112934201D0234B1B68224B1B68B3F58D
:10051C00885F1CD100F050FE1F4BF122DA6041F2D3
:10052C0011124FF000031D49022000F0F1FD0346AB
:10053C00002B07D041F211124FF000031749022093
:10054C0000F0E6FD00F05AFE154B7B6020E0114BED
:10055C001B68B3F5085F19D100F02EFE0E4BF1228B
:10056C00DA6042F211224FF000030C49022000F035
:10057C00CFFD0346002B07D042F211224FF00003AF
:10058C000649022000F0C4FD00F038FE054B7B60EC
:10059C00FEE700BF00F00308003C024000800008AA
:1005AC00000012080000040880B594B000AF07F1F9
:1005BC00200330220021184602F0CCFE07F10C0378
:1005CC0000221A605A609A60DA601A610023BB60DC
:1005DC00284B1B6C274A43F080531364254B1B6C30
:1005EC0003F08053BB60BB6800237B60224B1B680D
:1005FC00214A43F4404313601F4B1B6803F44043F0
:10060C007B607B6801233B624FF4A0237B62022357
:10061C00BB634FF48003FB6304233B64A8237B641C
:10062C000223BB640723FB6407F12003184601F087
:10063C0017FA0346002B01D000F094F90F23FB604E
:10064C0002233B6100237B614FF4A053BB614FF449
:10065C008053FB6107F10C030521184601F078FC6F
:10066C000346002B01D000F07DF900BF5037BD468A
:10067C0080BD00BF003802400070004080B500AF64
:10068C00114B124A1A60104B4FF4E1325A600E4B68
:10069C0000229A600C4B0022DA600B4B00221A618C
:1006AC00094B0C225A61084B00229A61064B00221E
:1006BC00DA61054801F048FE0346002B01D000F03A
:1006CC0051F900BF80BD00BF8804002000440040E9
:1006DC0080B500AF114B124A1A60104B4FF4E13247
:1006EC005A600E4B00229A600C4B0022DA600B4BC6
:1006FC0000221A61094B0C225A61084B00229A61A4
:10070C00064B0022DA61054801F01EFE0346002B61
:10071C0001D000F027F900BF80BD00BF28000020E9
:10072C000048004080B500AF144B4FF0A0421A6057
:10073C00124B04225A60114B0222DA600F4B00223A
:10074C001A610E4B02229A610C4B0122DA610B4B9F
:10075C0000221A62094B00225A62084B0122DA620B
:10076C00064B00221A63054801F05DF80346002B86
:10077C0001D000F0F7F800BF80BD00BF6C00002076
:10078C0080B58CB000AF07F11C0300221A605A60D0
:10079C009A60DA601A610023BB616C4B1B6B6B4A6D
:1007AC0043F004031363694B1B6B03F00403BB613D
:1007BC00BB6900237B61654B1B6B644A43F0800370
:1007CC001363624B1B6B03F080037B617B6900231B
:1007DC003B615E4B1B6B5D4A43F0010313635B4B48
:1007EC001B6B03F001033B613B690023FB60574B20
:1007FC001B6B564A43F002031363544B1B6B03F001
:10080C000203FB60FB680023BB60504B1B6B4F4A21
:10081C0043F0080313634D4B1B6B03F00803BB60E1
:10082C00BB6800237B60494B1B6B484A43F0400379
:10083C001363464B1B6B03F040037B607B68002209
:10084C0044F28101424800F0D5FF0022402141488A
:10085C0000F0D0FF4FF40053FB613F4B3B62002391
:10086C007B6207F11C0319463C4800F017FE32234B
:10087C00FB6102233B6200237B620323BB620B23DD
:10088C00FB6207F11C031946344800F007FE86236F
:10089C00FB6102233B6200237B620323BB620B23BD
:1008AC00FB6207F11C0319462D4800F0F7FD44F2DA
:1008BC008103FB6101233B6200237B620023BB624B
:1008CC0007F11C031946224800F0E8FD4FF40053D1
:1008DC00FB6102233B6200237B620323BB620B237D
:1008EC00FB6207F11C031946194800F0D7FD4023A1
:1008FC00FB6101233B6200237B620023BB6207F197
:10090C001C031946134800F0C9FD8023FB6100232A
:10091C003B6200237B6207F11C0319460D4800F073
:10092C00BDFD4FF42053FB6102233B6200237B622D
:10093C000323BB620B23FB6207F11C03194605481A
:10094C0000F0ACFD00BF3037BD4680BD0038024022
:10095C000004024000180240000011100008024080
:10096C000000024080B400AF72B600BFFEE700008A
:10097C0080B483B000AF00237B60104B5B6C0F4ADC
:10098C0043F4804353640D4B5B6C03F480437B60F6
:10099C007B6800233B60094B1B6C084A43F0805377
:1009AC001364064B1B6C03F080533B603B6800BF29
:1009BC000C37BD465DF8047B704700BF0038024021
:1009CC0080B58CB000AF786007F11C0300221A6070
:1009DC005A609A60DA601A617B681B68454A9342D8
:1009EC0052D10023BB61444B1B6C434A43F400338C
:1009FC001364414B1B6C03F40033BB61BB690023D4
:100A0C007B613D4B1B6B3C4A43F0010313633A4B38
:100A1C001B6B03F001037B617B6900233B61364B4D
:100A2C001B6B354A43F008031363334B1B6B03F00A
:100A3C0008033B613B690823FB6102233B620023F3
:100A4C007B620323BB620723FB6207F11C0319467D
:100A5C002A4800F023FD2023FB6102233B62002384
:100A6C007B620323BB620723FB6207F11C0319465D
:100A7C00234800F013FD00220021262000F07FFA0D
:100A8C00262000F098FA31E07B681B681D4A9342DF
:100A9C002CD10023FB60184B1B6C174A43F48023AA
:100AAC001364154B1B6C03F48023FB60FB68002361
:100ABC00BB60114B1B6B104A43F0080313630E4BC6
:100ACC001B6B03F00803BB60BB684FF44073FB6106
:100ADC0002233B6200237B620323BB620723FB627E
:100AEC0007F11C031946064800F0D8FC00BF30374C
:100AFC00BD4680BD0044004000380240000002406A
:100B0C00000C02400048004080B58AB000AF78600D
:100B1C0007F1140300221A605A609A60DA601A61B5
:100B2C007B681B68B3F1A04F3FD100233B61214B85
:100B3C001B6B204A43F0010313631E4B1B6B03F02A
:100B4C0001033B613B694FF4E8537B610223BB61BA
:100B5C000023FB6103233B620A237B6207F114032E
:100B6C001946154800F09AFC4FF400737B61002382
:100B7C00BB610023FB6107F1140319460E4800F01A
:100B8C008DFC0C4B5B6B0B4A43F0800353630023CF
:100B9C00FB60084B5B6C074A43F480435364054B82
:100BAC005B6C03F48043FB60FB6800BF2837BD46D9
:100BBC0080BD00BF003802400000024080B400AF8E
:100BCC00FEE780B400AFFEE780B400AFFEE780B470
:100BDC0000AFFEE780B400AFFEE780B400AF00BF0B
:100BEC00BD465DF8047B704780B400AF00BFBD46C6
:100BFC005DF8047B704780B400AF00BFBD465DF864
:100C0C00047B704780B500AF00F09AF800BF80BD40
:100C1C0080B500AF024801F0E5FB00BF80BD00BF0E
:100C2C008804002080B400AF064BD3F88830054A06
:100C3C0043F47003C2F8883000BFBD465DF8047BF6
:100C4C00704700BF00ED00E0DFF834D00D480E49CE
:100C5C000E4A002302E0D458C4500433C4188C420A
:100C6C00F9D30B4A0B4C002301E013600432A2426F
:100C7C00FBD3FFF7D7FF02F049FBFFF72DFC7047C2
:100C8C0000000320000000200C000020B0330008FE
:100C9C000C000020F0040020FEE7000080B500AF3F
:100CAC000E4B1B680D4A43F4007313600B4B1B680F
:100CBC000A4A43F480631360084B1B68074A43F4E9
:100CCC0080731360032000F04FF9002000F008F847
:100CDC00FFF74EFE0023184680BD00BF003C0240CB
:100CEC0080B582B000AF7860124B1A68124B1B783B
:100CFC0019464FF47A73B3FBF1F3B2FBF3F31846D6
:100D0C0000F067F90346002B01D001230EE07B684D
:100D1C000F2B0AD8002279684FF0FF3000F02FF922
:100D2C00064A7B681360002300E00123184608374D
:100D3C00BD4680BD000000200800002004000020FB
:100D4C0080B400AF064B1B781A46064B1B68134445
:100D5C00044A136000BFBD465DF8047B704700BFBA
:100D6C0008000020CC04002080B400AF034B1B68AB
:100D7C001846BD465DF8047B704700BFCC040020CC
:100D8C0080B584B000AF7860FFF7EEFFB8607B6889
:100D9C00FB60FB68B3F1FF3F05D00A4B1B781A468A
:100DAC00FB681344FB6000BFFFF7DEFF0246BB6825
:100DBC00D31AFA689A42F7D800BF00BF1037BD4665
:100DCC0080BD00BF0800002080B485B000AF786003
:100DDC007B6803F00703FB600C4BDB68BB60BA68F5
:100DEC004FF6FF031340BB60FB681A02BB6813434A
:100DFC0043F0BF6343F40033BB60044ABB68D36069
:100E0C0000BF1437BD465DF8047B704700ED00E071
:100E1C0080B400AF044BDB681B0A03F007031846D1
:100E2C00BD465DF8047B704700ED00E080B483B0F4
:100E3C0000AF0346FB7197F90730002B0BDBFB79F6
:100E4C0003F01F02074997F907305B09012000FAEC
:100E5C0002F241F8232000BF0C37BD465DF8047B3D
:100E6C00704700BF00E100E080B483B000AF0346E0
:100E7C003960FB7197F90730002B0ADB3B68DAB25B
:100E8C000C4997F907301201D2B20B4483F80023B6
:100E9C000AE03B68DAB20849FB7903F00F03043B24
:100EAC001201D2B20B441A7600BF0C37BD465DF866
:100EBC00047B704700E100E000ED00E080B489B0F5
:100ECC0000AFF860B9607A60FB6803F00703FB6160
:100EDC00FB69C3F10703042B28BF0423BB61FB6927
:100EEC000433062B02D9FB69033B00E000237B6132
:100EFC004FF0FF32BB6902FA03F3DA43BB681A40C6
:100F0C007B699A404FF0FF317B6901FA03F3D943B7
:100F1C007B680B40134318462437BD465DF8047BB1
:100F2C007047000080B582B000AF78607B68013BF1
:100F3C00B3F1807F01D301230FE00A4A7B68013BA8
:100F4C0053600F214FF0FF30FFF78EFF054B00224F
:100F5C009A60044B07221A60002318460837BD46D6
:100F6C0080BD00BF10E000E080B582B000AF7860BB
:100F7C007868FFF729FF00BF0837BD4680BD80B5F4
:100F8C0086B000AF0346B9607A60FB7300237B61C7
:100F9C00FFF73EFF78617A68B9687869FFF78EFFD2
:100FAC00024697F90F3011461846FFF75DFF00BF58
:100FBC001837BD4680BD80B582B000AF0346FB71CB
:100FCC0097F907301846FFF731FF00BF0837BD46C9
:100FDC0080BD80B582B000AF78607868FFF7A2FF63
:100FEC00034618460837BD4680BD80B584B000AFB7
:100FFC0078607B689B6DFB60FFF7B6FEB8607B6822
:10100C0093F83530DBB2022B08D07B6880225A650E
:10101C007B68002283F83420012352E07B681B6834
:10102C001A687B681B6822F016021A607B681B68C2
:10103C005A697B681B6822F080025A617B681B6CC2
:10104C00002B03D17B689B6C002B07D07B681B6843
:10105C001A687B681B6822F008021A607B681B68A0
:10106C001A687B681B6822F001021A6013E0FFF714
:10107C007BFE0246BB68D31A052B0CD97B68202259
:10108C005A657B68002283F834207B68032283F83E
:10109C003520032315E07B681B681B6803F00103F4
:1010AC00002BE4D17B68DB6D3F229A40FB689A6091
:1010BC007B68002283F834207B68012283F835207A
:1010CC00002318461037BD4680BD80B483B000AFF6
:1010DC0078607B6893F83530DBB2022B04D07B68E8
:1010EC0080225A6501230CE07B68052283F83520A9
:1010FC007B681B681A687B681B6822F001021A6007
:10110C00002318460C37BD465DF8047B7047000081
:10111C0080B586B000AFF860B960C7E90023012341
:10112C00FB75234B1B7E012B01D102233BE0204B93
:10113C0001221A764CF2503000F070F80346FB7521
:10114C00FB7D002B2BD1FB68002B05D13B7819467E
:10115C00B86800F01BF916E0FB68012B05D13B8841
:10116C001946B86800F0EEF80DE0FB68022B05D1CB
:10117C003B681946B86800F0C3F804E0D7E90023CF
:10118C00B86800F08BF84CF2503000F047F803468A
:10119C00FB75084B1B69074A23F001031361044BD1
:1011AC0000221A76FB7D18461837BD4680BD00BF5D
:1011BC00D0040020003C024080B483B000AF002378
:1011CC00FB710B4B1B69002B0BDA094B094A5A605C
:1011DC00074B094A5A60064B1B69002B01DA0123A5
:1011EC00FB71FB7918460C37BD465DF8047B7047E4
:1011FC00003C024023016745AB89EFCD80B400AFC2
:10120C00054B1B69044A43F0004313610023184645
:10121C00BD465DF8047B7047003C024080B584B04D
:10122C0000AF78600023FB601A4B0022DA61FFF7F5
:10123C009BFDF86010E07B68B3F1FF3F0CD07B683E
:10124C00002B07D0FFF790FD0246FB68D31A7A6893
:10125C009A4201D2032319E00F4BDB6803F480336D
:10126C00002BE8D10C4BDB6803F00103002B02D000
:10127C00094B0122DA60084BDB6803F4F973002B8D
:10128C0003D000F0A5F8012300E000231846103726
:10129C00BD4680BDD0040020003C024080B485B027
:1012AC0000AFF860C7E90023144B1B69134A23F401
:1012BC0040731361114B1B69104A43F44073136163
:1012CC000E4B1B690D4A43F001031361FB683A682E
:1012DC001A60BFF36F8F00BFD7E900014FF0000217
:1012EC004FF000030A000023F968043113460B6029
:1012FC0000BF1437BD465DF8047B7047003C0240CC
:10130C0080B483B000AF786039600D4B1B690C4A18
:10131C0023F4407313610A4B1B69094A43F40073AD
:10132C001361074B1B69064A43F0010313617B6889
:10133C003A681A6000BF0C37BD465DF8047B7047F5
:10134C00003C024080B483B000AF78600B467B80D9
:10135C000D4B1B690C4A23F4407313610A4B1B6938
:10136C00094A43F480731361074B1B69064A43F027
:10137C00010313617B687A881A8000BF0C37BD4665
:10138C005DF8047B704700BF003C024080B483B022
:10139C0000AF78600B46FB700C4B1B690B4A23F4B7
:1013AC0040731361094B094A1B691361074B1B6995
:1013BC00064A43F0010313617B68FA781A7000BF88
:1013CC000C37BD465DF8047B704700BF003C024003
:1013DC0080B400AF2F4BDB6803F01003002B08D058
:1013EC002D4BDB6943F010032B4AD361294B1022A0
:1013FC00DA60284BDB6803F02003002B08D0264B67
:10140C00DB6943F00803244AD361224B2022DA60C3
:10141C00204BDB6803F04003002B08D01E4BDB692C
:10142C0043F004031C4AD3611A4B4022DA60194B77
:10143C00DB6803F08003002B08D0174BDB6943F00B
:10144C000203154AD361134B8022DA60114BDB681F
:10145C0003F48073002B09D00F4BDB6943F00103BD
:10146C000D4AD3610B4B4FF48072DA60094BDB6889
:10147C0003F00203002B08D0074BDB6943F0200379
:10148C00054AD361034B0222DA6000BFBD465DF80A
:10149C00047B7047003C0240D004002080B489B02B
:1014AC0000AF7860396000237B6100233B6100232F
:1014BC00BB610023FB6177E10122FB6902FA03F3B4
:1014CC007B613B681B687A6913403B613A697B69B5
:1014DC009A4240F066813B685B6803F00303012B82
:1014EC0005D03B685B6803F00303022B30D17B68AB
:1014FC009B68BB61FB695B00032202FA03F3DB43CD
:10150C00BA691340BB613B68DA68FB695B0002FA9D
:10151C0003F3BA691343BB617B68BA699A607B6851
:10152C005B68BB610122FB6902FA03F3DB43BA6916
:10153C001340BB613B685B681B0903F00102FB694C
:10154C0002FA03F3BA691343BB617B68BA695A6048
:10155C003B685B6803F00303032B17D07B68DB68E5
:10156C00BB61FB695B00032202FA03F3DB43BA693C
:10157C001340BB613B689A68FB695B0002FA03F39A
:10158C00BA691343BB617B68BA69DA603B685B6814
:10159C0003F00303022B23D1FB69DA087B680832C2
:1015AC0053F82230BB61FB6903F007039B000F2249
:1015BC0002FA03F3DB43BA691340BB613B681A6957
:1015CC00FB6903F007039B0002FA03F3BA691343A8
:1015DC00BB61FB69DA087B680832B96943F82210F1
:1015EC007B681B68BB61FB695B00032202FA03F397
:1015FC00DB43BA691340BB613B685B6803F00302D1
:10160C00FB695B0002FA03F3BA691343BB617B68A5
:10161C00BA691A603B685B6803F08053002B00F0DA
:10162C00C0800023FB60664B5B6C654A43F48043CF
:10163C005364634B5B6C03F48043FB60FB68614A4F
:10164C00FB699B08023352F82330BB61FB6903F042
:10165C0003039B000F2202FA03F3DB43BA69134026
:10166C00BB617B68584A934237D07B68574A934298
:10167C0031D07B68564A93422BD07B68554A9342B3
:10168C0025D07B68544A93421FD07B68534A9342BF
:10169C0019D07B68524A934213D07B68514A9342CB
:1016AC000DD07B68504A934207D07B684F4A9342D7
:1016BC0001D1092312E00A2310E008230EE00723CE
:1016CC000CE006230AE0052308E0042306E00323CC
:1016DC0004E0022302E0012300E00023FA6902F097
:1016EC00030292009340BA691343BB613549FB690D
:1016FC009B080233BA6941F823203D4B1B68BB6140
:10170C003B69DB43BA691340BB613B685B6803F41C
:10171C008033002B03D0BA693B691343BB61344A55
:10172C00BB691360324B5B68BB613B69DB43BA69D5
:10173C001340BB613B685B6803F40033002B03D0A0
:10174C00BA693B691343BB61294ABB695360284B97
:10175C009B68BB613B69DB43BA691340BB613B6867
:10176C005B6803F48013002B03D0BA693B69134305
:10177C00BB611F4ABB6993601D4BDB68BB613B6956
:10178C00DB43BA691340BB613B685B6803F400132D
:10179C00002B03D0BA693B691343BB61144ABB6984
:1017AC00D360FB690133FB61FB690F2B7FF684AEC1
:1017BC0000BF00BF2437BD465DF8047B704700BFF7
:1017CC000038024000380140000002400004024092
:1017DC0000080240000C02400010024000140240BD
:1017EC0000180240001C024000200240002402406D
:1017FC00003C014080B483B000AF78600B467B8026
:10180C0013467B707B78002B03D07A887B689A61B7
:10181C0003E07B881A047B689A6100BF0C37BD46D5
:10182C005DF8047B7047F0B58FB00AAF78607B68C9
:10183C00002B01D101230FE17B681B68BB607B6827
:10184C0093F8BD33DBB2002B06D17B68002283F802
:10185C00BC237868FFF758F97B68032283F8BD2313
:10186C00BB68DB6B03F48073002B02D17B68002216
:10187C001A617B681B68184601F0F3FA7B681B68D9
:10188C003B607E686D4606F110040FCC0FC50FCC83
:10189C000FC594E8030085E80300331D0ECB3868B0
:1018AC0001F07EFA0346002B05D07B68022283F8F8
:1018BC00BD230123D0E07B681B680021184601F092
:1018CC00E1FA0023FB734AE0FA7B79681346DB00EC
:1018DC009B1A9B000B443D3301221A70FA7B7968EA
:1018EC001346DB009B1A9B000B443C33FA7B1A70AB
:1018FC00FA7BFB7B98B279681346DB009B1A9B0042
:10190C000B44423302461A80FA7B79681346DB009B
:10191C009B1A9B000B443F3300221A70FA7B7968A8
:10192C001346DB009B1A9B000B44443300221A60C5
:10193C00FA7B79681346DB009B1A9B000B444833F7
:10194C0000221A60FA7B79681346DB009B1A9B0015
:10195C000B44503300221A60FB7B0133FB73FA7B80
:10196C007B685B689A42AFD30023FB7344E0FA7B3D
:10197C0079681346DB009B1A9B000B4403F2FD13A2
:10198C0000221A70FA7B79681346DB009B1A9B00C5
:10199C000B4403F5FE73FA7B1A70FA7B79681346D5
:1019AC00DB009B1A9B000B4403F2FF1300221A70FE
:1019BC00FA7B79681346DB009B1A9B000B4403F5FA
:1019CC00017300221A60FA7B79681346DB009B1ABC
:1019DC009B000B4403F5027300221A60FA7B7968B2
:1019EC001346DB009B1A9B000B4403F50473002287
:1019FC001A60FB7B0133FB73FA7B7B685B689A4252
:101A0C00B5D37B681B683B607E686D4606F110049D
:101A1C000FCC0FC50FCC0FC594E8030085E803006D
:101A2C00331D0ECB386801F057FA0346002B05D056
:101A3C007B68022283F8BD2301230DE07B68002222
:101A4C0083F838207B68012283F8BD237B681B68F0
:101A5C00184601F006FC002318461437BD46F0BDAD
:101A6C0080B586B000AF78607B68002B01D1012374
:101A7C0064E27B681B6803F00103002B75D0A34B59
:101A8C009B6803F00C03042B0CD0A04B9B6803F059
:101A9C000C03082B12D19D4B5B6803F48003B3F548
:101AAC00800F0BD1994B1B6803F40033002B5BD0D8
:101ABC007B685B68002B57D101233FE27B685B6836
:101ACC00B3F5803F06D1914B1B68904A43F48033A9
:101ADC0013601DE07B685B68B3F5A02F0CD18B4BBA
:101AEC001B688A4A43F480231360884B1B68874A1F
:101AFC0043F4803313600BE0844B1B68834A23F45C
:101B0C0080331360814B1B68804A23F4802313605D
:101B1C007B685B68002B13D0FFF726F9386108E06F
:101B2C00FFF722F902463B69D31A642B01D9032330
:101B3C0004E2764B1B6803F40033002BF0D014E066
:101B4C00FFF712F9386108E0FFF70EF902463B691E
:101B5C00D31A642B01D90323F0E16C4B1B6803F4FB
:101B6C000033002BF0D100E000BF7B681B6803F052
:101B7C000203002B63D0654B9B6803F00C03002B16
:101B8C000BD0624B9B6803F00C03082B1CD15F4BF2
:101B9C005B6803F48003002B16D15C4B1B6803F0CD
:101BAC000203002B05D07B68DB68012B01D00123DD
:101BBC00C4E1564B1B6823F0F8027B681B69DB0001
:101BCC00524913430B603AE07B68DB68002B20D052
:101BDC004F4B01221A60FFF7C7F8386108E0FFF796
:101BEC00C3F802463B69D31A022B01D90323A5E1A2
:101BFC00464B1B6803F00203002BF0D0434B1B68D1
:101C0C0023F0F8027B681B69DB00404913430B602F
:101C1C0015E03F4B00221A60FFF7A6F8386108E088
:101C2C00FFF7A2F802463B69D31A022B01D9032312
:101C3C0084E1364B1B6803F00203002BF0D17B6868
:101C4C001B6803F00803002B30D07B685B69002B0A
:101C5C0016D0304B01221A60FFF786F8386108E085
:101C6C00FFF782F802463B69D31A022B01D90323F2
:101C7C0064E1264B5B6F03F00203002BF0D015E000
:101C8C00244B00221A60FFF76FF8386108E0FFF769
:101C9C006BF802463B69D31A022B01D903234DE1A1
:101CAC001A4B5B6F03F00203002BF0D17B681B68AF
:101CBC0003F00403002B00F0A0800023FB75134BF2
:101CCC001B6C03F08053002B0FD10023BB600F4B18
:101CDC001B6C0E4A43F0805313640C4B1B6C03F0CB
:101CEC008053BB60BB680123FB750B4B1B6803F473
:101CFC008073002B21D1084B1B68074A43F4807377
:101D0C001360FFF731F8386111E000BF0038024072
:101D1C0000004742800E474200700040FFF724F855
:101D2C0002463B69D31A022B01D9032306E1854BEA
:101D3C001B6803F48073002BF0D07B689B68012B2D
:101D4C0006D1814B1B6F804A43F0010313671CE0E3
:101D5C007B689B68052B0CD17B4B1B6F7A4A43F03D
:101D6C0004031367784B1B6F774A43F00103136727
:101D7C000BE0754B1B6F744A23F001031367724B16
:101D8C001B6F714A23F0040313677B689B68002B5D
:101D9C0015D0FEF7E9FF38610AE0FEF7E5FF0246D1
:101DAC003B69D31A41F28832934201D90323C5E02F
:101DBC00654B1B6F03F00203002BEED014E0FEF713
:101DCC00D3FF38610AE0FEF7CFFF02463B69D31A16
:101DDC0041F28832934201D90323AFE05A4B1B6F77
:101DEC0003F00203002BEED1FB7D012B05D1564BEA
:101DFC001B6C554A23F0805313647B689B69002B42
:101E0C0000F09B80504B9B6803F00C03082B5CD0BC
:101E1C007B689B69022B41D14C4B00221A60FEF768
:101E2C00A3FF386108E0FEF79FFF02463B69D31A17
:101E3C00022B01D9032381E0434B1B6803F0007391
:101E4C00002BF0D17B68DA697B681B6A1A437B68CC
:101E5C005B6A9B011A437B689B6A5B08013B1B0412
:101E6C001A437B68DB6A1B06374913434B60374BBD
:101E7C0001221A60FEF778FF386108E0FEF774FF64
:101E8C0002463B69D31A022B01D9032356E02E4B91
:101E9C001B6803F00073002BF0D04EE02B4B00229C
:101EAC001A60FEF761FF386108E0FEF75DFF02463D
:101EBC003B69D31A022B01D903233FE0224B1B6849
:101ECC0003F00073002BF0D137E07B689B69012B8A
:101EDC0001D1012332E01C4B5B68FB607B689B6982
:101EEC00012B28D0FB6803F480027B68DB699A42E3
:101EFC0021D1FB6803F03F027B681B6A9A421AD11E
:101F0C00FA6847F6C07313407A68526A920193429A
:101F1C0011D1FB6803F440327B689B6A5B08013B80
:101F2C001B049A4207D1FB6803F070627B68DB6A82
:101F3C001B069A4201D0012300E0002318461837F3
:101F4C00BD4680BD00700040003802406000474232
:101F5C0080B584B000AF786039607B68002B01D10C
:101F6C000123CCE0684B1B6803F00F033A689A42DC
:101F7C000CD9654B3A68D2B21A70634B1B6803F0EC
:101F8C000F033A689A4201D00123B8E07B681B68C2
:101F9C0003F00203002B20D07B681B6803F00403C2
:101FAC00002B05D0594B9B68584A43F4E05393607F
:101FBC007B681B6803F00803002B05D0534B9B6810
:101FCC00524A43F460439360504B9B6823F0F002F9
:101FDC007B689B684D4913438B607B681B6803F0DF
:101FEC000103002B44D07B685B68012B07D1474B66
:101FFC001B6803F40033002B19D101237FE07B68AD
:10200C005B68022B03D07B685B68032B07D13F4BCB
:10201C001B6803F00073002B09D101236FE03B4BCD
:10202C001B6803F00203002B01D1012367E0374B3F
:10203C009B6823F003027B685B68344913438B6015
:10204C00FEF792FEF8600AE0FEF78EFE0246FB6891
:10205C00D31A41F28832934201D903234FE02B4B20
:10206C009B6803F00C027B685B689B009A42EBD187
:10207C00254B1B6803F00F033A689A420CD2224B93
:10208C003A68D2B21A70204B1B6803F00F033A68FF
:10209C009A4201D0012332E07B681B6803F00403F1
:1020AC00002B08D0194B9B6823F4E0527B68DB684B
:1020BC00164913438B607B681B6803F00803002BE5
:1020CC0009D0124B9B6823F460427B681B69DB00D0
:1020DC000E4913438B6000F021F802460B4B9B68B2
:1020EC001B0903F00F030A49CB5C22FA03F3094ADC
:1020FC001360094B1B681846FEF7F2FD00231846C7
:10210C001037BD4680BD00BF003C02400038024085
:10211C008833000800000020040000202DE9B043A3
:10212C0084B000AF00237B600023FB6000233B6086
:10213C000023BB60674B9B6803F00C03082B0DD08E
:10214C00082B00F2BD80002B02D0042B03D0B7E08B
:10215C00614BBB60B7E0614BBB60B4E05D4B5B684F
:10216C0003F03F037B605B4B5B6803F48003002B45
:10217C004DD0584B5B689B091A464FF0000340F258
:10218C00FF104FF0000102EA000803EA0109404683
:10219C0049464FF000024FF000034B0143EAD06375
:1021AC00420110461946B0EB080061EB09014FF0F3
:1021BC0000024FF000038B0143EA90638201121A74
:1021CC0063EB01034FF000004FF00001D90041EA2E
:1021DC005271D00002460B4612EB080243EB090386
:1021EC004FF000004FF00001590241EAD251500269
:1021FC0002460B46104619467B681A464FF0000300
:10220C00FDF7EEFF02460B461346FB604AE0314BEE
:10221C005B689B091A464FF0000340F2FF104FF029
:10222C00000102EA000403EA0105204629464FF0AA
:10223C0000024FF000034B0143EAD0634201104609
:10224C001946001B61EB05014FF000024FF0000333
:10225C008B0143EA90638201121A63EB01034FF086
:10226C0000004FF00001D90041EA5271D000024643
:10227C000B46121945EB03034FF000004FF0000121
:10228C00990241EA9251900202460B4610461946B9
:10229C007B681A464FF00003FDF7A2FF02460B467F
:1022AC001346FB600B4B5B681B0C03F00303013301
:1022BC005B003B60FA683B68B2FBF3F3BB6002E087
:1022CC00054BBB6000BFBB6818461037BD46BDE868
:1022DC00B08300BF003802400024F40000127A00E2
:1022EC0080B400AF034B1B681846BD465DF8047BF9
:1022FC00704700BF0000002080B500AFFFF7F0FF73
:10230C000246054B9B689B0A03F007030349CB5C11
:10231C0022FA03F3184680BD0038024098330008B7
:10232C0080B500AFFFF7DCFF0246054B9B685B0BEB
:10233C0003F007030349CB5C22FA03F3184680BD74
:10234C00003802409833000880B582B000AF786046
:10235C007B68002B01D101233FE07B6893F83D3073
:10236C00DBB2002B06D17B68002283F83C20786816
:10237C00FEF726FB7B68242283F83D207B681B68D4
:10238C00DA687B681B6822F40052DA60786800F027
:10239C003FFB7B681B681A697B681B6822F49042C0
:1023AC001A617B681B685A697B681B6822F02A02D9
:1023BC005A617B681B68DA687B681B6842F40052C0
:1023CC00DA607B6800221A647B68202283F83D2047
:1023DC007B68202283F83E20002318460837BD4630
:1023EC0080BD000080B58AB000AF78607B681B6848
:1023FC001B687B627B681B68DB683B627B681B68C5
:10240C005B69FB610023BB6100237B617B6A03F08A
:10241C000F03BB61BB69002B0DD17B6A03F020035A
:10242C00002B08D03B6A03F02003002B03D0786804
:10243C0000F057FA7CE1BB69002B00F0B180FB691E
:10244C0003F00103002B05D13B6A03F49073002BBE
:10245C0000F0A6807B6A03F00103002B0AD03B6AD4
:10246C0003F48073002B05D07B681B6C43F00102D6
:10247C007B681A647B6A03F00403002B0AD0FB69A7
:10248C0003F00103002B05D07B681B6C43F00202A8
:10249C007B681A647B6A03F00203002B0AD0FB6989
:1024AC0003F00103002B05D07B681B6C43F0040286
:1024BC007B681A647B6A03F00803002B0FD03B6A1D
:1024CC0003F02003002B04D1FB6903F00103002B64
:1024DC0005D07B681B6C43F008027B681A647B6830
:1024EC001B6C002B00F01F817B6A03F02003002B78
:1024FC0007D03B6A03F02003002B02D0786800F071
:10250C00F0F97B681B685B6903F04003402B0CBF40
:10251C0001230023DBB27B617B681B6C03F0080397
:10252C00002B02D17B69002B31D0786800F030F998
:10253C007B681B685B6903F04003402B23D17B68ED
:10254C001B685A697B681B6822F040025A617B68E1
:10255C009B6B002B13D07B689B6B774A1A657B684F
:10256C009B6B1846FEF7B1FD0346002B16D07B681B
:10257C009B6B1B6D7A68926B104698470EE07868DF
:10258C0000F0F0F80AE0786800F0ECF806E0786803
:10259C0000F0E8F87B6800221A64C4E000BFC2E0D7
:1025AC007B681B6B012B40F0A2807B6A03F010034D
:1025BC00002B00F09C803B6A03F01003002B00F012
:1025CC0096800023FB607B681B681B68FB607B6844
:1025DC001B685B68FB60FB687B681B685B6903F0CE
:1025EC004003402B4FD17B689B6B1B685B683B8225
:1025FC003B8A002B00F099807B689B8D3A8A9A422B
:10260C0080F093807B683A8ADA857B689B6BDB6908
:10261C00B3F5807F2BD07B681B68DA687B681B68FE
:10262C0022F48072DA607B681B685A697B681B68CD
:10263C0022F001025A617B681B685A697B681B682F
:10264C0022F040025A617B68202283F83E207B688E
:10265C0000221A637B681B68DA687B681B6822F0AF
:10266C001002DA607B689B6B1846FEF7BEFC7B6839
:10267C009A8D7B68DB8D9BB2D31A9BB21946786816
:10268C0000F07AF851E07B689A8D7B68DB8D9BB209
:10269C00D31A7B827B68DB8D9BB2002B47D07B8A65
:1026AC00002B44D07B681B68DA687B681B6822F4BB
:1026BC009072DA607B681B685A697B681B6822F031
:1026CC0001025A617B68202283F83E207B6800223D
:1026DC001A637B681B68DA687B681B6822F010023F
:1026EC00DA607B8A1946786800F046F81FE07B6A4E
:1026FC0003F08003002B08D03B6A03F08003002B0F
:10270C0003D0786800F085F812E07B6A03F0400390
:10271C00002B0DD03B6A03F04003002B08D07868E7
:10272C0000F0C7F804E000BF02E000BF00E000BF0B
:10273C002837BD4680BD00BFF727000880B483B0A2
:10274C0000AF786000BF0C37BD465DF8047B704766
:10275C0080B483B000AF786000BF0C37BD465DF825
:10276C00047B704780B483B000AF786000BF0C3737
:10277C00BD465DF8047B704780B483B000AF7860D1
:10278C000B467B8000BF0C37BD465DF8047B704761
:10279C0080B483B000AF78607B681B68DA687B68B4
:1027AC001B6822F49072DA607B681B685A697B683C
:1027BC001B6822F001025A617B681B6B012B07D14D
:1027CC007B681B68DA687B681B6822F01002DA6091
:1027DC007B68202283F83E207B6800221A6300BFAE
:1027EC000C37BD465DF8047B704780B584B000AFF4
:1027FC0078607B689B6BFB60FB680022DA85FB686A
:10280C000022DA84F868FFF7ADFF00BF1037BD4631
:10281C0080BD80B485B000AF78607B6893F83D30A4
:10282C00DBB2212B3ED17B689B68B3F5805F14D162
:10283C007B681B69002B10D17B681B6AFB60FB68F3
:10284C001B881A467B681B68C2F308025A607B68B7
:10285C001B6A9A1C7B681A6208E07B681B6A591C0D
:10286C007A6811621A787B681B685A607B68DB8C0B
:10287C009BB2013B9BB27A681946D184002B0FD1D5
:10288C007B681B68DA687B681B6822F08002DA6060
:10289C007B681B68DA687B681B6842F04002DA6070
:1028AC00002300E0022318461437BD465DF8047B74
:1028BC00704780B582B000AF78607B681B68DA68BF
:1028CC007B681B6822F04002DA607B68202283F868
:1028DC003D207868FFF732FF002318460837BD46C5
:1028EC0080BD80B584B000AF78607B6893F83E30D3
:1028FC00DBB2222B40F087807B689B68B3F5805F4E
:10290C0017D17B681B69002B13D10023FB607B68FC
:10291C009B6ABB607B681B685B689BB2C3F3080354
:10292C009AB2BB681A807B689B6A9A1C7B689A6215
:10293C0026E07B689B6AFB600023BB607B689B681E
:10294C00B3F5805F07D07B689B68002B0AD17B684E
:10295C001B69002B06D17B681B685B68DAB2FB68CD
:10296C001A7008E07B681B685B68DBB203F07F03BE
:10297C00DAB2FB681A707B689B6A5A1C7B689A6295
:10298C007B68DB8D9BB2013B9BB27A681946D18583
:10299C00002B36D17B681B68DA687B681B6822F0D9
:1029AC002002DA607B681B68DA687B681B6822F49B
:1029BC008072DA607B681B685A697B681B6822F03E
:1029CC0001025A617B68202283F83E207B681B6BD6
:1029DC00012B0ED17B681B68DA687B681B6822F0C0
:1029EC001002DA607B689B8D19467868FFF7C4FE8D
:1029FC0002E07868FFF7ACFE7B6800221A630023C4
:102A0C0002E0002300E0022318461037BD4680BDCB
:102A1C002DE9F04F9FB000AFF866FB6E1B681B6989
:102A2C0023F44050FB6ED968FB6E1A6840EA010330
:102A3C001361FB6E9A68FB6E1B691A43FB6E5B6934
:102A4C001A43FB6EDB6913433B67FB6E1B68DB6849
:102A5C0023F4164121F00C01FB6E1A683B6F0B43FB
:102A6C00D360FB6E1B685B6923F44070FB6E996945
:102A7C00FB6E1A6840EA01035361FB6E1A68C54B82
:102A8C009A4204D0FB6E1A68C34B9A4203D1FFF7EB
:102A9C0047FC786702E0FFF72FFC7867FB6EDB6979
:102AAC00B3F5004F40F0B6807B6F1C464FF000052D
:102ABC0022462B46911839645B417B64D7E910237D
:102ACC00121945EB03034FF000004FF00001D90041
:102ADC0041EA5271D00002460B46111939666B411E
:102AEC007B66FB6E5B681A464FF000039118B96366
:102AFC005B41FB63D7E90E23D7E91801FDF770FBA7
:102B0C0002460B46A54BA3FB02235B091E017B6F00
:102B1C001C464FF0000522462B46911839635B4149
:102B2C007B63D7E90C23121945EB03034FF000002C
:102B3C004FF00001D90041EA5271D00002460B4619
:102B4C001119B9656B41FB65FB6E5B681A464FF05A
:102B5C0000039118B9625B41FB62D7E90A23D7E9FC
:102B6C001601FDF73DFB02460B468C4BA3FB0213F3
:102B7C005B09642101FB03F3D31ADB003233874A70
:102B8C00A2FB03235B095B0003F4F8731E447B6F09
:102B9C0018464FF0000102460B4694183C625B410C
:102BAC007B62D7E90823121841EB03034FF00004B2
:102BBC004FF00005DD0045EA5275D40022462B4645
:102BCC0014183C654B417B65FB6E5B681A464FF0F5
:102BDC0000039118B9615B41FB61D7E90623D7E982
:102BEC001401FDF7FDFA02460B466C4BA3FB0213D6
:102BFC005B09642101FB03F3D31ADB003233674A10
:102C0C00A2FB03235B0903F00702FB6E1B68324433
:102C1C009A60B9E07B6F1C464FF0000522462B46AC
:102C2C00911839615B417B61D7E90423121945EB9B
:102C3C0003034FF000004FF00001D90041EA52713C
:102C4C00D00002460B4612EB040843EB0509FB6E61
:102C5C005B6818464FF000014FF000024FF0000384
:102C6C008B0043EA9073820040464946FDF7B8FA60
:102C7C0002460B46494BA3FB02235B091E017B6FEB
:102C8C0018464FF0000102460B469418BC605B419D
:102C9C00FB60D7E90223121841EB03034FF0000449
:102CAC004FF00005DD0045EA5275D40022462B4654
:102CBC001418BC644B41FB64FB6E5B6818464FF008
:102CCC0000014FF000024FF000038B0043EA9073B9
:102CDC008200D7E91201FDF783FA02460B462F4B0F
:102CEC00A3FB02135B09642101FB03F3D31A1B0141
:102CFC0032332A4AA2FB03235B0903F0F0031E4480
:102D0C007B6F18464FF0000102460B4694183C604E
:102D1C005B417B60D7E90023121841EB03034FF0B2
:102D2C0000044FF00005DD0045EA5275D400224640
:102D3C002B4612EB000A43EB010BFB6E5B6818464B
:102D4C004FF000014FF000024FF000038B0043EAFC
:102D5C009073820050465946FDF742FA02460B46E4
:102D6C000E4BA3FB02135B09642101FB03F3D31A83
:102D7C001B013233094AA2FB03235B0903F00F0248
:102D8C00FB6E1B6832449A6000BF7C37BD46BDE8C1
:102D9C00F08F00BF00100140001401401F85EB5163
:102DAC0084B080B584B000AF786007F11C0080E877
:102DBC000E003B6B012B22D17B689B6B23F4803282
:102DCC007B689A637B68DB6823F4840323F04003FD
:102DDC007A68D3607B68DB6823F440127B68DA6026
:102DEC00FB6C012B05D17B68DB6843F480127B689C
:102DFC00DA60786800F056FA0346FB731AE07B68D9
:102E0C00DB6843F040027B68DA60786800F04AFACD
:102E1C000346FB733B6C002B06D17B689B6B43F426
:102E2C0080327B689A6305E07B689B6B23F480326D
:102E3C007B689A63BB6A012B0BD17B689B6843F060
:102E4C0006027B689A607B689B6843F020027B6873
:102E5C009A60FB7B18461037BD46BDE8804004B035
:102E6C00704780B483B000AF78607B689B6823F0B8
:102E7C0001027B689A60002318460C37BD465DF84A
:102E8C00047B704780B582B000AF78600B46FB7056
:102E9C007B68DB6823F0C0427B68DA60FB78012B2F
:102EAC0006D17B68DB6843F000527B68DA600BE08C
:102EBC00FB78002B06D17B68DB6843F080427B6893
:102ECC00DA6001E0012303E03220FDF759FF002313
:102EDC0018460837BD4680BD84B080B586B000AFBB
:102EEC00786007F1240080E80E000023FB757B68F6
:102EFC00FB6000233B6109E07A683B6940339B002F
:102F0C00134400225A603B6901333B613B690E2B31
:102F1C00F2D9FB6C002B1CD1FB6803F500635B68DA
:102F2C00FA6802F5006243F0020353607B689B6B06
:102F3C0043F400127B689A637B689B6B23F400223A
:102F4C007B689A637B689B6B23F480227B689A6313
:102F5C000BE07B689B6B23F400127B689A637B68A5
:102F6C009B6B43F400227B689A63FB6803F56063F8
:102F7C001A4600231360FB6803F500631946FB68CF
:102F8C0003F500631A460B681360BB6B012B0CD165
:102F9C00FB6A002B04D10021786800F049F908E0A5
:102FAC000121786800F044F903E00321786800F00F
:102FBC003FF91021786800F0F3F80346002B01D09C
:102FCC000123FB75786800F011F90346002B01D042
:102FDC000123FB75FB6803F500631A46002313619C
:102FEC00FB6803F500631A4600235361FB6803F585
:102FFC0000631A460023D36100233B6143E03B6925
:10300C005A01FB68134403F510631B6803F000437B
:10301C00B3F1004F18D13B69002B0AD13B695A011F
:10302C00FB68134403F510631A464FF000631360FA
:10303C0013E03B695A01FB68134403F510631A460D
:10304C004FF09043136008E03B695A01FB6813444E
:10305C0003F510631A46002313603B695A01FB68A1
:10306C00134403F510631A46002313613B695A019C
:10307C00FB68134403F510631A464FF67F339360D5
:10308C003B6901333B617B6A3A699A42B7D30023AF
:10309C003B6143E03B695A01FB68134403F5306321
:1030AC001B6803F00043B3F1004F18D13B69002BB0
:1030BC000AD13B695A01FB68134403F530631A4685
:1030CC004FF00063136013E03B695A01FB68134433
:1030DC0003F530631A464FF09043136008E03B69E8
:1030EC005A01FB68134403F530631A46002313603E
:1030FC003B695A01FB68134403F530631A460023FD
:10310C0013613B695A01FB68134403F530631A469B
:10311C004FF67F3393603B6901333B617B6A3A69BD
:10312C009A42B7D3FB6803F500631B69FA6802F592
:10313C00006223F4807313617B6800229A617B68C0
:10314C006FF080425A613B6B002B05D17B689B6909
:10315C0043F010027B689A617B689A690F4B1343AA
:10316C007A689361FB6B002B05D07B689B6943F0FD
:10317C0008027B689A61FB6C012B07D17B689B6909
:10318C0043F0804343F004037A689361FB7D184657
:10319C001837BD46BDE8804004B0704700383C800D
:1031AC0080B485B000AF786039600023FB603B6869
:1031BC009B0143F020027B681A61FB680133FB60C2
:1031CC00FB68094A934201D9032306E07B681B691B
:1031DC0003F02003202BF0D0002318461437BD46F3
:1031EC005DF8047B704700BF400D030080B485B0D0
:1031FC0000AF78600023FB607B6810221A61FB68CB
:10320C000133FB60FB68094A934201D9032306E0B2
:10321C007B681B6903F01003102BF0D000231846B9
:10322C001437BD465DF8047B704700BF400D0300AA
:10323C0080B485B000AF78600B46FB707B68FB6098
:10324C00FB6803F500631A68FB78F96801F5006107
:10325C0013430B60002318461437BD465DF8047BFE
:10326C00704780B485B000AF78607B68FB60FB680A
:10327C0003F560631B68FA6802F5606223F00303D0
:10328C001360FB6803F500635B68FA6802F5006283
:10329C0043F002035360002318461437BD465DF813
:1032AC00047B704780B485B000AF78600023FB606E
:1032BC00FB680133FB60FB68134A934201D903237B
:1032CC001BE07B681B69002BF2DA0023FB607B6838
:1032DC001B6943F001027B681A61FB680133FB60D8
:1032EC00FB68094A934201D9032306E07B681B69FA
:1032FC0003F00103012BF0D0002318461437BD4610
:10330C005DF8047B704700BF400D030070B50D4D98
:10331C000D4C641BA4100026A64209D10B4D0C4C7D
:10332C0000F020F8641BA4100026A64205D170BD45
:10333C0055F8043B98470136EEE755F8043B98479F
:10334C000136F2E7A8330008A8330008A8330008B8
:10335C00AC33000802440346934200D1704703F893
:10336C00011BF9E7F8B500BFF8BC08BC9E467047D6
:0C337C00F8B500BFF8BC08BC9E467047C6
:10338800000000000000000001020304060708090D
:08339800000000000102030423
:0833A0007CCEFF7F010000005C
:0433A800D101000847
:0433AC00AD01000867
:0C33B0000024F4001000000001000000E8
:0400000508000C558E
:00000001FF
